:100000000C9434000C943E000C943E000C943E0082
:100010000C943E000C943E000C943E000C943E0068
:100020000C943E000C943E000C943E000C943E0058
:100030000C943E000C943E000C943E000C943E0048
:100040000C943E000C943E000C943E000C943E0038
:100050000C943E000C943E000C943E000C943E0028
:100060000C943E000C943E0011241FBECFEFD8E04C
:10007000DEBFCDBF0E945C000C9461000C940000B8
:10008000559A80EA87BD80E388BD83E284BD89E01C
:1000900085BD0895259A7894089520E030E02817CA
:1000A000390749F040EA5FE0000041505109E1F7AB
:1000B0002F5F3F4FF4CF08950E9440000E944A00F6
:0600C000FFCFF894FFCF12
:00000001FF
