:100000000C9434000C9446000C9446000C9446006A
:100010000C9446000C9446000C9446000C94460048
:100020000C9446000C9446000C9400010C9446007D
:100030000C9446000C9446000C9446000C94460028
:100040000C9446000C9446000C9446000C949800C6
:100050000C9446000C9446000C9446000C94460008
:100060000C9446000C94460011241FBECFEFD8E03C
:10007000DEBFCDBF21E0A0E0B1E001C01D92AC33F6
:10008000B207E1F70E9423020C945D020C94000079
:10009000259A2098289A789408955098519A109209
:1000A000C50080E18093C40082E08093C00088E0B6
:1000B0008093C10086E08093C200089520E030E084
:1000C0002817390749F040EA5FE000004150510924
:1000D000E1F72F5F3F4FF4CF0895F894909103011B
:1000E00091110BC08093C6008091C1008062809303
:1000F000C10081E08093030116C0E0910C0191E002
:100100009E0F943108F090E020913501921769F02C
:10011000F0E0EE0FFF1FE35FFE4F282F30E031834A
:10012000208390930C0180E001C081E078940895D1
:100130001F920F920FB60F9211248F93EF93FF939C
:10014000E091350180910C018E1308C08091C100AF
:100150008F7D8093C1001092030112C0F0E0EE0F7A
:10016000FF1FE35FFE4F80818093C60080913501C1
:100170008F5F843118F48093350102C010923501ED
:10018000FF91EF918F910F900FBE0F901F901895D8
:1001900080913A0190913B01892BD1F320913A0152
:1001A00030913B0180E021153105F1F020FF17C0AF
:1001B000F89440913A0150913B0121E030E0082E43
:1001C00002C0220F331F0A94E2F7209530952423B2
:1001D000352330933B0120933A01789405C08F5F1B
:1001E000369527958031F9F690E0089582E4809362
:1001F0008100EFE6F0E0808180628083789408954A
:100200001F920F920FB60F9211242F933F938F934B
:100210009F939091810080E4892780938100809151
:10022000860090918700909305018093040180914E
:100230000401909105019093020180910401909135
:10024000050180930101809100012091020181113B
:100250000CC08091010190E0922B90933701809324
:10026000360181E080930001E5C08091010190E0BA
:10027000922B909307018093060120910601309103
:10028000070180913601909137012817390770F4E2
:10029000809106019091070120913601309137013C
:1002A000821B930B90933901809338012091360182
:1002B00030913701809106019091070180910601EC
:1002C000909107012091360130913701821B930BE9
:1002D00090933901809338018091380190913901D0
:1002E0008134984388F080913801909139018036AB
:1002F000944550F480918100811106C080913A01AB
:1003000090913B01826088C08091380190913901C1
:1003100081329C4188F0809138019091390180337D
:100320009A4250F480918100882331F080913A0103
:1003300090913B01846070C08091380190913901A7
:10034000813E964088F08091380190913901803546
:100350009A4050F480918100811106C080913A0149
:1003600090913B01886058C080913801909139018B
:10037000813E964088F08091380190913901803516
:100380009A4050F480918100882331F080913A01A5
:1003900090913B01806140C080913801909139017A
:1003A0008132934088F08091380190913901803BEF
:1003B000944050F480918100882331F080913A017B
:1003C00090913B01806228C0809138019091390161
:1003D00081349C4988F080913801909139018036B0
:1003E0009A4E50F480918100882331F080913A0137
:1003F00090913B01806410C0809138019091390147
:100400008133924F68F080918100882349F0809178
:100410003A0190913B01806890933B0180933A01AF
:1004200080910601909107019093370180933601E6
:10043000109200019F918F913F912F910F900FBECD
:100440000F901F901895C0E00E94C80090933B0148
:1004500080933A01C13071F028F0C23091F0C3307E
:10046000B9F027C080913A0190913B01029709F5BC
:10047000C1E01FC080913A0190913B010497C1F007
:1004800013C080913A0190913B01089779F00CC01C
:1004900080913A0190913B018032910549F080347E
:1004A000910531F0409721F0C0E003C0C3E001C0E6
:0E04B000C2E08C2F0E946D00C7CFF894FFCFE2
:00000001FF
