:100000000C9434000C9446000C9446000C9446006A
:100010000C9446000C945B000C9446000C94460033
:100020000C9446000C9446000C9446000C94460038
:100030000C9446000C9446000C9446000C94460028
:100040000C9446000C9446000C9446000C94460018
:100050000C9446000C9446000C9446000C94460008
:100060000C9446000C94460011241FBECFEFD8E03C
:10007000DEBFCDBF21E0A0E0B1E001C01D92A23003
:10008000B207E1F70E946A000C9481000C94000012
:1000900084E0809368008BBBEDE6F0E080E1808334
:1000A00089B190818923809300010895259A5498FD
:1000B0005C9A789408951F920F920FB60F921124B4
:1000C0008F9381E0809301018F910F900FBE0F906D
:1000D0001F9018950E9448000E9456002D9A80910A
:1000E00001018130E1F789B190916D0089239091F0
:1000F000000198278093000194FD1D9A1092010140
:06010000EECFF894FFCFE2
:00000001FF
