:100000000C9434000C9451000C9451000C94510049
:100010000C9451000C9451000C9451000C9451001C
:100020000C9451000C9451000C9451000C9451000C
:100030000C9451000C9451000C9451000C945100FC
:100040000C9451000C9451000C9451000C945100EC
:100050000C9451000C9451000C9451000C945100DC
:100060000C9451000C94510011241FBECFEFD8E026
:10007000DEBFCDBF11E0A0E0B1E0E0E4F1E002C0FE
:1000800005900D92A430B107D9F721E0A4E0B1E0CA
:1000900001C01D92A530B207E1F70E9462000C94E6
:1000A0009E000C94000020E030E02817390749F04A
:1000B00040EA5FE0000041505109E1F72F5F3F4FF8
:1000C000F4CF0895259A579A84E690E00E94530051
:1000D000809104018F5F8093040160910001709111
:1000E000010124E6829FC00111240E948A00892B0D
:1000F00009F44F9A8091040160910201709103010B
:1001000024E6829FC00111240E948A00892BE1F617
:100110001D9ADACFAA1BBB1B51E107C0AA1FBB1F48
:10012000A617B70710F0A61BB70B881F991F5A9583
:10013000A9F780959095BC01CD010895F894FFCF63
:040140002C01E803A3
:00000001FF
