:100000000C9434000C944B000C943E000C943E0075
:100010000C943E000C943E000C943E000C943E0068
:100020000C943E000C943E000C943E000C943E0058
:100030000C943E000C943E000C943E000C943E0048
:100040000C943E000C943E000C943E000C943E0038
:100050000C943E000C943E000C943E000C943E0028
:100060000C943E000C943E0011241FBECFEFD8E04C
:10007000DEBFCDBF0E9456000C945C000C940000C3
:1000800081E080936900E89A8CBB0895259A529884
:100090005A9A789408951F920F920FB60F921124D6
:1000A0001D9A0F900FBE0F901F9018950E94400050
:0C00B0000E9446002D9AFFCFF894FFCF6D
:00000001FF
