:100000000C9434000C9446000C9446000C9446006A
:100010000C9446000C9446000C9446000C94460048
:100020000C9446000C9446000C9446000C94460038
:100030000C9446000C9446000C9456000C94460018
:100040000C9446000C9446000C9446000C94460018
:100050000C9446000C9446000C9446000C94460008
:100060000C9446000C94460011241FBECFEFD8E03C
:10007000DEBFCDBF21E0A0E0B1E001C01D92A53000
:10008000B207E1F70E9480000C94C6000C940000B7
:100090008AEF87BD82E084BD93E095BD80936E00BA
:1000A00078940895259A2D9A789408951F920F9226
:1000B0000FB60F9211248F939F938091000190911E
:1000C0000101892BB1F0809100019091010101970C
:1000D0009093010180930001892B59F480910201D2
:1000E00090910301909301018093000181E080933E
:1000F00004019F918F910F900FBE0F901F90189544
:1001000084E690E0909303018093020180910201C4
:100110009091030190930101809300010E94480097
:100120000E94520089E190E2209104012223E1F330
:10013000F894109204012091020130910301280FDC
:10014000311D87FD3A9530930301209302012091E0
:10015000020130910301253F314038F42091020122
:10016000309103012436310570F48195209102010C
:1001700030910301482F440F550B240F351F309346
:10018000030120930201789493B9CECFF894FFCF66
:00000001FF
