:100000000C9434000C9446000C9446000C9446006A
:100010000C9446000C9446000C9446000C94460048
:100020000C9446000C9446000C9446000C94460038
:100030000C9446000C9446000C9446000C94460028
:100040000C9446000C9446000C94D8000C948C0040
:100050000C9446000C9446000C9446000C94460008
:100060000C9446000C94460011241FBECFEFD8E03C
:10007000DEBFCDBF21E0A0E0B1E001C01D92AE32F5
:10008000B207E1F70E9439010C9454010C9400006E
:100090005098519A1092C5008FEC8093C40082E072
:1000A0008093C00088E98093C10086E08093C200FD
:1000B0000895559A80EA87BD80E388BD83E284BDB8
:1000C00089E085BD0895259A78940895F8949091D3
:1000D000010191110BC08093C6008091C100806224
:1000E0008093C10081E08093010111C0E091020181
:1000F00091E09E0F943108F090E020912B0192172F
:1001000041F0F0E0E95EFE4F80839093020180E0D1
:1001100001C081E0789408951F920F920FB60F925C
:1001200011248F93EF93FF93E0912B0180910201B3
:100130008E1308C08091C1008F7D8093C100109202
:10014000010110C0F0E0E95EFE4F80818093C6009F
:1001500080912B018F5F843118F480932B0102C0B2
:1001600010922B01FF91EF918F910F900FBE0F9086
:100170001F901895F8948091000190912D01981787
:1001800079F0E82FF0E0ED5FFE4F20818F5F843142
:1001900018F48093000102C01092000180E002C0B8
:1001A00020E081E0789490E0982F8827822B0895B2
:1001B0001F920F920FB60F9211248F939F93EF937C
:1001C000FF93E0912D0181E08E0F843108F080E0F3
:1001D0009091C600F0E0ED5FFE4F908380932D017B
:1001E00090910001891308C08F5F843119F08093CA
:1001F000000102C01092000181E080932C01FF9168
:10020000EF919F918F910F900FBE0F901F901895B7
:10021000AC0124E0569547952A95E1F79C0163E0EF
:10022000369527956A95E1F7240F351FA90174E0EB
:10023000569547957A95E1F7240F351F432F55279B
:10024000240F351F65E0629FA001639F500D1124AC
:10025000841B950B6DE0689FA001699F500D1124D0
:10026000CA01F6E096958795FA95E1F7820F931FFC
:1002700008950E9459000E9448000E9463008091E6
:100280002C018823E1F30E94BA009C012227232B32
:10029000B1F723E0880F991F2A95E1F70E94080122
:0C02A00088BD10922C01EBCFF894FFCF2A
:00000001FF
