:100000000C9434000C9446000C9446000C9446006A
:100010000C9446000C9446000C9446000C94460048
:100020000C9446000C9446000C9446000C94460038
:100030000C9446000C9446000C9446000C94460028
:100040000C94F9000C9446000C9446000C94B200F9
:100050000C9446000C940A010C9446000C94460043
:100060000C9446000C94460011241FBECFEFD8E03C
:10007000DEBFCDBF21E0A0E0B1E001C01D92A334FE
:10008000B207E1F70E9419010C9440010C940000A2
:10009000EAE7F0E080818F6E8083ECE7F0E080811A
:1000A00080648083EEE7F0E0808181608083089542
:1000B00085E085BDEEE6F0E0808181608083789404
:1000C0000895259A2098289A3898789408955098F9
:1000D000519A1092C50080E18093C40082E0809321
:1000E000C00088E08093C10086E08093C20008953C
:1000F00020E030E02817390749F040EA5FE00000CF
:1001000041505109E1F72F5F3F4FF4CF0895F89424
:100110009091040191110BC08093C6008091C100A1
:1001200080628093C10081E08093040116C0E09159
:100130000E0191E09E0F943108F090E02091410172
:10014000921769F0F0E0EE0FFF1FE75EFE4F282FD9
:1001500030E03183208390930E0180E001C081E084
:10016000789408951F920F920FB60F9211248F93D7
:10017000EF93FF93E091410180910E018E1308C02F
:100180008091C1008F7D8093C1001092040112C044
:10019000F0E0EE0FFF1FE75EFE4F80818093C60008
:1001A000809141018F5F843118F48093410102C036
:1001B00010924101FF91EF918F910F900FBE0F9020
:1001C0001F901895482FCB01FB0127E030E050E04D
:1001D000BA01022E02C0769567950A94E2F760FD97
:1001E00002C060E301C061E361932150310980F7EF
:1001F00008951F920F920FB60F9211248F93809142
:1002000001018F5F809301018F910F900FBE0F90BE
:100210001F9018951F920F920FB60F9211248F9373
:1002200081E0809300018F910F900FBE0F901F907F
:1002300018950E9448000E9467000E9458000E9482
:100240006100809101018E31E0F3809100018823EB
:10025000A1F08091780090917900909310018093A3
:100260000F0190930501809342010E9487008091C5
:1002700005010E9487001092000110920101E1CF58
:04028000F894FFCF20
:00000001FF
