:100000000C9434000C9451000C9451000C94510049
:100010000C9451000C9451000C9451000C9451001C
:100020000C9451000C9451000C9451000C9451000C
:100030000C9451000C9451000C9451000C945100FC
:100040000C9451000C9451000C94A3000C9451009A
:100050000C9451000C9451000C9451000C945100DC
:100060000C9451000C94510011241FBECFEFD8E026
:10007000DEBFCDBF11E0A0E0B1E0ECEBF1E002C0EB
:1000800005900D92AE30B107D9F721E0AEE0B1E0B6
:1000900001C01D92A933B207E1F70E94B1000C9490
:1000A000DC000C9400005098519A1092C50080E139
:1000B0008093C40082E08093C00080E98093C100F7
:1000C00086E08093C2000895259A1092C600789425
:1000D000089520E030E02817390749F040EA5FE052
:1000E000000041505109E1F72F5F3F4FF4CF0895D1
:1000F000F89490910E0191110BC08093C6008091ED
:10010000C10080628093C10081E080930E0116C01F
:10011000E0910F0191E09E0F943108F090E0209162
:100120003801921769F0F0E0EE0FFF1FE05FFE4F1D
:10013000282F30E03183208390930F0180E001C0AD
:1001400081E0789408951F920F920FB60F921124B8
:100150008F938091C6008F910F900FBE0F901F90CC
:100160001895CF93DF93CDB7DEB72E970FB6F894DF
:10017000DEBF0FBECDBF8EE0E0E0F1E08E010F5F8D
:100180001F4FD80101900D928A95E1F70E9453000C
:100190000E9464008EE0D82ED00E7801F701819184
:1001A0007F010E947800811102C0DE10F7CF8CED34
:0C01B00095E00E946900F1CFF894FFCFA9
:0E01BC0048656C6C6F2C20776F726C640A00C3
:00000001FF
