:100000000C9434000C94DB000C9451000C945100BF
:100010000C9451000C9451000C9451000C9451001C
:100020000C9451000C9451000C9451000C9451000C
:100030000C9451000C9451000C9451000C945100FC
:100040000C9451000C9451000C9451000C94AB0092
:100050000C9451000C9451000C9451000C945100DC
:100060000C9451000C94510011241FBECFEFD8E026
:10007000DEBFCDBF11E0A0E0B1E0ECE4F2E002C0F1
:1000800005900D92AE30B107D9F721E0AEE0B1E0B6
:1000900001C01D92A933B207E1F70E94F5000C944C
:1000A00024010C94000081E080936900E89A8CBBE5
:1000B00008955098519A1092C50080E18093C40031
:1000C00082E08093C00088E08093C10086E0809346
:1000D000C2000895259A52985A9A1092C6007894B0
:1000E000089520E030E02817390749F040EA5FE042
:1000F000000041505109E1F72F5F3F4FF4CF0895C1
:10010000F89490910E0191110BC08093C6008091DC
:10011000C10080628093C10081E080930E0116C00F
:10012000E0910F0191E09E0F943108F090E0209152
:100130003801921769F0F0E0EE0FFF1FE05FFE4F0D
:10014000282F30E03183208390930F0180E001C09D
:1001500081E0789408951F920F920FB60F921124A8
:100160008F93EF93FF93E091380180910F018E13ED
:1001700008C08091C1008F7D8093C10010920E0154
:1001800012C0F0E0EE0FFF1FE05FFE4F8081809312
:10019000C600809138018F5F843118F48093380154
:1001A00002C010923801FF91EF918F910F900FBE16
:1001B0000F901F9018951F920F920FB60F92112457
:1001C0008F938091C10083FF04C08091C100877F1D
:1001D00003C08091C10088608093C1001D9A8F91F7
:1001E0000F900FBE0F901F901895CF93DF93CDB750
:1001F000DEB72E970FB6F894DEBF0FBECDBF8EE0F0
:10020000E0E0F1E08E010F5F1F4FD80101900D92E9
:100210008A95E1F70E9453000E9459000E946A00EB
:100220008EE0D82ED00E7801F70181917F010E94D7
:100230008000882311F02D9A02C0DE10F5CF8CEDDE
:0C02400095E00E947100EFCFF894FFCF12
:0E024C0048656C6C6F2C20776F726C640A0032
:00000001FF
