:100000000C9434000C9451000C9451000C94510049
:100010000C9451000C9451000C9451000C94BD00B0
:100020000C9451000C9451000C9451000C9451000C
:100030000C9451000C9451000C9491000C945100BC
:100040000C9451000C9451000C9451000C945100EC
:100050000C9451000C9451000C9451000C945100DC
:100060000C9451000C94510011241FBECFEFD8E026
:10007000DEBFCDBF11E0A0E0B1E0E6E7F2E002C0F4
:1000800005900D92A430B107D9F721E0A4E0B1E0CA
:1000900001C01D92AE30B207E1F70E9417010C9427
:1000A00039010C94000080E283B9089580E183B99E
:1000B000089584B1806384B978940895909307017A
:1000C00080930601662329F090930B0180930A0127
:1000D00004C010920B0110920A018AEF87BD82E0E2
:1000E00084BD93E095BD80936E00089590930501C3
:1000F00080930401662329F09093090180930801FD
:1001000004C010920901109208018AEF8093B30095
:1001100082E08093B00094E09093B10080937000EF
:1001200008951F920F920FB60F9211248F939F93F1
:1001300080910601909107010097C1F0019790937B
:10014000070180930601892B89F480910A0190911F
:100150000B01909307018093060180910C0190910F
:100160000D01816090930D0180930C019F918F91FF
:100170000F900FBE0F901F9018951F920F920FB601
:100180000F9211248F939F93809104019091050108
:100190000097C1F001979093050180930401892B8A
:1001A00089F4809108019091090190930501809351
:1001B000040180910C0190910D01826090930D01DA
:1001C00080930C019F918F910F900FBE0F901F9005
:1001D000189580910C0190910D01892BD1F32091FC
:1001E0000C0130910D0180E021153105F1F020FF67
:1001F00017C0F89440910C0150910D0121E030E0BE
:10020000082E02C0220F331F0A94E2F72095309582
:100210002423352330930D0120930C01789405C0DD
:100220008F5F369527958031F9F690E0089561E06B
:1002300080ED97E00E945E0061E080E797E10E9418
:1002400076000E945900C1E0D0E00E94E9009927A1
:10025000FC01EE0FFF1FE050FF4F0190F081E02DF9
:100260009E0102C0220F331F8A95E2F7C90109954A
:06027000ECCFF894FFCF73
:0402760053005600DB
:00000001FF
