:100000000C9434000C9451000C9451000C94510049
:100010000C9451000C9451000C9451000C9451001C
:100020000C9451000C9451000C94DB000C94D401FE
:100030000C9451000C9451000C9451000C945100FC
:100040000C9451000C9451000C9451000C949A00A3
:100050000C9451000C9451000C9451000C945100DC
:100060000C9451000C94510011241FBECFEFD8E026
:10007000DEBFCDBF11E0A0E0B1E0E0E1F8E002C0FA
:1000800005900D92A834B107D9F721E0A8E4B1E0BA
:1000900001C01D92A537B207E1F70E948D030C94B1
:1000A00006040C9400005098519A1092C50080E10B
:1000B0008093C40082E08093C00088E08093C100F8
:1000C00086E08093C2000895F894909148019111C0
:1000D0000BC08093C6008091C10080628093C100F4
:1000E00081E08093480111C0E0915D0191E09E0F95
:1000F000943108F090E020915E01921741F0F0E019
:10010000E75BFE4F808390935D0180E001C081E05A
:1001100078940895CF93DF93EC0180E0999199232F
:1001200031F0811104C0892F0E946400F7CFDF9164
:10013000CF9108951F920F920FB60F9211248F93B3
:10014000EF93FF93E0915E0180915D018E1308C0F3
:100150008091C1008F7D8093C1001092480110C032
:10016000F0E0E75BFE4F80818093C60080915E01E6
:100170008F5F843118F480935E0102C010925E019B
:10018000FF91EF918F910F900FBE0F901F901895D8
:10019000109280008FEF9FEF9093890080938800EA
:1001A000E1E8F0E080818A608083EFE6F0E0808122
:1001B0008262808308951F920F920FB60F921124CE
:1001C000CF92DF92EF92FF922F933F934F935F93E3
:1001D0006F937F938F939F93AF93BF93EF93FF930F
:1001E0002091860030918700309364012093630151
:1001F00081E080935F019091600191110DC0809327
:10020000600130936201209361019091810080E44C
:10021000892780938100B3C04091610150916201B0
:10022000C9012417350740F4A0E0B0E01196841B03
:10023000950BA109B10902C0841B950B3093620193
:100240002093610120918100BC0180E090E026FFB5
:1002500034C02F7B209381000E94A0036B017C019E
:1002600020E030EC4AED56E40E949B0387FF0DC06E
:1002700020E030E84BEB55E4C701B6010E940104D1
:1002800018161CF482E090E078C020E030E04AE7E5
:1002900055E4C701B6010E949B0387FF70C020E0B0
:1002A00030E048E454E4C701B6010E940104181686
:1002B0000CF065C088E090E060C02064209381006D
:1002C0000E94A0036B017C0120E030E84BE356E480
:1002D0000E949B0387FF0DC020E030E44CE955E409
:1002E000C701B6010E94010418161CF484E090E0D6
:1002F00044C020E030E04AE755E4C701B6010E945F
:100300009B0387FF0DC020E030E443E055E4C701C4
:10031000B6010E94010418161CF480E190E02DC083
:1003200020E030E04AEF54E4C701B6010E949B038D
:1003300087FF0DC020E030E048EC53E4C701B60170
:100340000E94010418161CF480E290E016C020E020
:1003500030EC4AE557E4C701B6010E949B0387FFD2
:100360000EC020E030E84BEB56E4C701B6010E9416
:100370000104181624F480E490E00E940702FF9123
:10038000EF91BF91AF919F918F917F916F915F910D
:100390004F913F912F91FF90EF90DF90CF900F9072
:1003A0000FBE0F901F9018951F920F920FB60F92CD
:1003B00011242F933F934F935F936F937F938F936A
:1003C0009F93AF93BF93EF93FF9380915F01811150
:1003D0000BC0809181008F7B80938100109260011F
:1003E00080E890E00E94070210925F01FF91EF9178
:1003F000BF91AF919F918F917F916F915F914F913D
:100400003F912F910F900FBE0F901F901895209144
:10041000650130916601822B932B90936601809346
:10042000650108952091650130916601822393232F
:1004300008958091650190916601892BD1F32091F7
:1004400065013091660190E021153105F1F020FF42
:1004500017C0F894409165015091660121E030E0A9
:10046000092E02C0220F331F0A94E2F7209530951F
:10047000242335233093660120936501789405C0C9
:100480009F5F369527959031F9F621E030E0A9017C
:1004900002C0440F551F9A95E2F7CA010895509380
:1004A0006B0140936A012093690120936801609376
:1004B000670190936D0180936C014115510521F006
:1004C00080E090E0FA01099408952091680140913C
:1004D0006C0130916D01E42FF32FE20FF11DE20F5B
:1004E000F11D0190F081E02D0994CF93C82F8295E2
:1004F0008F708A3010F490E301C097E3890F0E9457
:100500006400CF70CA3010F480E301C087E38C0F21
:10051000CF910C946400CF93C82F892F0E9475024D
:100520008C2FCF910C947502CF93DF93EC01823026
:10053000910559F48FE091E00E948A0080E20E94C8
:10054000640081E08093680112C08038910579F0E1
:1005500084E191E00E948A0080E20E946400CE0162
:100560000E948B028AE0DF91CF910C946400DF91AE
:10057000CF910895CF93DF93EC01049759F489E16B
:1005800091E00E948A0080E20E94640082E08093F1
:1005900068010FC08EE191E00E948A0080E20E9413
:1005A0006400CE010E948B028AE00E9464001092D7
:1005B0006801DF91CF910895CF93DF93EC01089705
:1005C00059F484E291E00E948A0080E20E94640073
:1005D00083E0809368010FC089E291E00E948A0065
:1005E00080E20E946400CE010E948B028AE00E9499
:1005F000640010926801DF91CF91089590916F018E
:10060000882379F0E0916E01F0E0E059FE4F21E09F
:1006100030E0092E01C0220F0A94EAF78081282BCE
:1006200020839F5F90936F01983038F080916E0126
:100630008F5F80936E0110926F010895CF93DF93C7
:10064000C5E7D1E08A910E947502188281E0C03727
:10065000D807C1F710926F0110926E01DF91CF9110
:100660000895CF93DF93EC018031910549F48EE238
:1006700091E00E948A0080E20E94640081E00BC049
:100680008032910559F483E391E00E948A0080E270
:100690000E94640080E00E94FE020AC0803491053E
:1006A00059F488E391E00E948A0080E20E9464008D
:1006B00082E08093680122C08038910581F48DE347
:1006C00091E00E948A0080E20E946400109268011A
:1006D0000E941E038AE0DF91CF910C94640082E4B3
:1006E00091E00E948A0080E20E946400CE010E9494
:1006F0008B028AE00E94640010926801DF91CF9122
:10070000089520E040E050E064E080E091E00E9445
:100710004F020E9453000C94C8000E94810388E09D
:1007200091E00E948A008AE00E9464000E941902FF
:100730000E946502FBCF0E94DD0308F481E008956A
:10074000E89409C097FB3EF490958095709561956B
:100750007F4F8F4F9F4F9923A9F0F92F96E9BB2721
:100760009395F695879577956795B795F111F8CF9D
:10077000FAF4BB0F11F460FF1BC06F5F7F4F8F4F08
:100780009F4F16C0882311F096E911C0772321F0FE
:100790009EE8872F762F05C0662371F096E8862F96
:1007A00070E060E02AF09A95660F771F881FDAF7ED
:1007B000880F9695879597F90895990F0008550F1A
:1007C000AA0BE0E8FEEF16161706E807F907C0F0D7
:1007D00012161306E407F50798F0621B730B840BDF
:1007E000950B39F40A2661F0232B242B252B21F4B9
:1007F00008950A2609F4A140A6958FEF811D811D59
:1008000008950E94DD0308F48FEF0895F894FFCF58
:100810009402BA02DC0231035374617274210053F2
:10082000314531005331452A0053324532005332AD
:10083000452A200053334533005333452A005334AF
:100840004534005334453500533445360053344560
:0808500037005334452A000073
:00000001FF
