:100000000C9434000C9451000C9451000C94510049
:100010000C9451000C9451000C9451000C9451001C
:100020000C9451000C9451000C9425010C94A202E4
:100030000C9451000C9451000C9451000C945100FC
:100040000C9451000C9451000C9451000C94AF008E
:100050000C9451000C9451000C9451000C945100DC
:100060000C9451000C94510011241FBECFEFD8E026
:10007000DEBFCDBF11E0A0E0B1E0E6E6F7E002C0F0
:1000800005900D92A832B107D9F721E0A8E2B1E0BE
:1000900001C01D92A936B207E1F70E94F8020C9444
:1000A000B1030C940000259A2098289A789408951A
:1000B0005098519A1092C50080E18093C40082E06C
:1000C0008093C00088E08093C10086E08093C200E6
:1000D000089520E030E02817390749F040EA5FE052
:1000E000000041505109E1F72F5F3F4FF4CF0895D1
:1000F000F89490912A0191110BC08093C6008091D1
:10010000C10080628093C10081E080932A0116C003
:10011000E0912E0191E09E0F943108F090E0209143
:100120005B01921769F0F0E0EE0FFF1FE15DFE4FFB
:10013000282F30E03183208390932E0180E001C08E
:1001400081E078940895CF93DF93EC01899188231F
:1001500019F00E947800FACFDF91CF9108951F9295
:100160000F920FB60F9211248F93EF93FF93E091AC
:100170005B0180912E018E1308C08091C1008F7D9C
:100180008093C10010922A0112C0F0E0EE0FFF1F11
:10019000E15DFE4F80818093C60080915B018F5F9F
:1001A000843118F480935B0102C010925B01FF91CF
:1001B000EF918F910F900FBE0F901F901895809127
:1001C000620190916301892BD1F3209162013091FA
:1001D000630190E021153105F1F020FF17C0F8947C
:1001E000409162015091630121E030E0092E02C08C
:1001F000220F331F0A94E2F72095309524233523EC
:100200003093630120936201789405C09F5F369517
:1002100027959031F9F621E030E0A90102C0440FA2
:10022000551F9A95E2F7CA0108958AE080938100EC
:100230008FEF9FEF9093890080938800EFE6F0E0C6
:10024000808182628083789408951F920F920FB606
:100250000F9211242F933F934F935F936F937F934C
:100260008F939F93AF93BF93EF93FF9380918600FB
:100270009091870090932D0180932C0181E08093D1
:10028000290190912801911111C08093280180913A
:100290002C0190912D0190935D0180935C019091D0
:1002A000810080E48927809381003BC120912C014B
:1002B00030912D0180915C0190915D0128173907E3
:1002C00000F580912C0190912D0120915C013091DD
:1002D0005D01A0E0B0E01196821B930BA109B1096A
:1002E0008093570190935801A0935901B0935A01FC
:1002F0008091570190915801A0915901B0915A01F4
:100300000AC080912C0190912D0120915C013091C7
:100310005D01821B930B90935F0180935E0180913E
:100320002C0190912D0190935D0180935C0180914F
:10033000810080932B0180912B0186FF52C0809118
:100340002B018F7B8093810060915E0170915F0132
:1003500080E090E00E944B0320E030EC4AED56E450
:100360000E94460387FF16C060915E0170915F0195
:1003700080E090E00E944B0320E030E84BEB55E436
:100380000E94AC03181634F48091620190916301CD
:100390008260C3C060915E0170915F0180E090E077
:1003A0000E944B0320E030E04AE755E40E944603F8
:1003B00087FFB7C060915E0170915F0180E090E0BF
:1003C0000E944B0320E030E048E454E40E94AC0378
:1003D00018160CF0A6C080916201909163018860AC
:1003E0009CC080912B0180648093810060915E01AC
:1003F00070915F0180E090E00E944B0320E030E8C4
:100400004BE356E40E94460387FF16C060915E01ED
:1004100070915F0180E090E00E944B0320E030E4A7
:100420004CE955E40E94AC03181634F48091620143
:1004300090916301846071C060915E0170915F0171
:1004400080E090E00E944B0320E030E04AE755E472
:100450000E94460387FF16C060915E0170915F01A4
:1004600080E090E00E944B0320E030E443E055E45C
:100470000E94AC03181634F48091620190916301DC
:1004800080614BC060915E0170915F0180E090E0FF
:100490000E944B0320E030E04AEF54E40E94460300
:1004A00087FF16C060915E0170915F0180E090E06F
:1004B0000E944B0320E030E048EC53E40E94AC0380
:1004C000181634F48091620190916301806225C016
:1004D00060915E0170915F0180E090E00E944B03AB
:1004E00020E030EC4AE557E40E94460387FF19C03C
:1004F00060915E0170915F0180E090E00E944B038B
:1005000020E030E84BEB56E40E94AC0318164CF4A4
:100510008091620190916301806490936301809364
:100520006201FF91EF91BF91AF919F918F917F9168
:100530006F915F914F913F912F910F900FBE0F9050
:100540001F9018951F920F920FB60F9211248F9340
:100550009F9380912901811110C0809181008F7B30
:100560008093810010922801809162019091630133
:1005700080689093630180936201109229019F919A
:100580008F910F900FBE0F901F9018959091610161
:10059000882361F0E0916001F0E0EC59FE4F81E0CA
:1005A000092E01C0880F0A94EAF780839F5F909319
:1005B0006101983038F0809160018F5F8093600115
:1005C0001092610108951F93CF93DF93C4E6D1E0A9
:1005D0001C2F1B5F88810E94780019921C13FACF90
:1005E0001092610110926001DF91CF911F910895E7
:1005F0000E9458000E94150180E091E00E94A30033
:10060000C0E00E94DF00C13071F028F0C23099F0E4
:10061000C330C9F0F6CF0297A1F788E091E00E94BD
:10062000A300C1E0EECF049719F48CE091E02AC05A
:1006300080E191E0E3CF089719F784E191E00E940F
:10064000A300C3E0DECF80329105A1F050F44097C3
:10065000B9F688E191E00E94A30081E00E94C60201
:1006600013C08034910561F08038910549F684E229
:1006700091E0C4CF80E00E94C6028CE191E002C00C
:1006800080E291E00E94A300C2E0BBCF0E948803F9
:1006900008F481E00895E89409C097FB3EF4909532
:1006A0008095709561957F4F8F4F9F4F9923A9F04B
:1006B000F92F96E9BB279395F695879577956795DA
:1006C000B795F111F8CFFAF4BB0F11F460FF1BC01E
:1006D0006F5F7F4F8F4F9F4F16C0882311F096E9B1
:1006E00011C0772321F09EE8872F762F05C066235F
:1006F00071F096E8862F70E060E02AF09A95660F18
:10070000771F881FDAF7880F9695879597F90895D0
:10071000990F0008550FAA0BE0E8FEEF1616170612
:10072000E807F907C0F012161306E407F50798F07A
:10073000621B730B840B950B39F40A2661F0232B93
:10074000242B252B21F408950A2609F4A140A6950F
:100750008FEF811D811D08950E94880308F48FEF9B
:060760000895F894FFCF9C
:10076600636F6D65636F0A0031310A0032320A0029
:1007760032310A0033330A0034340A0034350A00B1
:0807860034360A0034370A0082
:00000001FF
