:100000000C9434000C9451000C9451000C94510049
:100010000C9451000C9451000C9451000C94B100BC
:100020000C9451000C9451000C9451000C9451000C
:100030000C9451000C9451000C9488000C945100C5
:100040000C9451000C9451000C9451000C945100EC
:100050000C9451000C9451000C9451000C945100DC
:100060000C9451000C94510011241FBECFEFD8E026
:10007000DEBFCDBF11E0A0E0B1E0EEEDF1E002C0E7
:1000800005900D92A430B107D9F721E0A4E0B1E0CA
:1000900001C01D92AE30B207E1F70E94DA000C9465
:1000A000ED000C94000008959093070180930601E1
:1000B000662329F010920B0110920A0104C090935C
:1000C0000B0180930A018AEF87BD82E084BD93E033
:1000D00095BD80936E007894089590930501809368
:1000E0000401662329F0109209011092080104C04E
:1000F00090930901809308018AEF8093B30082E016
:100100008093B00093E09093B100809370000895C5
:100110001F920F920FB60F9211248F939F9380918D
:100120000601909107010097A9F0019790930701AC
:1001300080930601892B71F480910A0190910B0143
:10014000909307018093060181E090E090930D0168
:1001500080930C019F918F910F900FBE0F901F9075
:1001600018951F920F920FB60F9211248F939F93A1
:1001700080910401909105010097A9F00197909357
:10018000050180930401892B71F4809108019091FD
:100190000901909305018093040182E090E090931F
:1001A0000D0180930C019F918F910F900FBE0F90C6
:1001B0001F901895259A60E08AEF90E00E94540005
:1001C00060E084EF91E00E946D0080910C019091BD
:0E01D0000D010097F1F32D9AF8CFF894FFCFB0
:0401DE005300530077
:00000001FF
