:100000000C9434000C9453000C9446000C9446005D
:100010000C9446000C9446000C9446000C94460048
:100020000C9446000C9446000C9446000C94460038
:100030000C9446000C9446000C9446000C94460028
:100040000C9446000C9446000C9446000C94460018
:100050000C9446000C9446000C9446000C94460008
:100060000C9446000C94460011241FBECFEFD8E03C
:10007000DEBFCDBF21E0A0E0B1E001C01D92A13004
:10008000B207E1F70E9462000C946E000C9400002D
:1000900081E080936900E89A8CBB0895259A529874
:1000A0005A9A789408951F920F920FB60F921124C6
:1000B0008F9381E0809300018F910F900FBE0F907E
:1000C0001F9018950E9448000E944E0080910001E8
:1000D0008130E1F71D9A10920001F8CFF894FFCF1C
:00000001FF
